:100000000C94FE000C941B010C941B010C941B011E
:100010000C941B010C941B010C941B010C941B01F0
:100020000C941B010C941B010C941B010C941B01E0
:100030000C941B010C941B010C9450020C941B019A
:100040000C941B010C941B010C941B010C941B01C0
:100050000C945F020C941B010C941B010C941B016B
:100060000C9428020C941B010C941B010C941B0192
:100070000C941B010C941B010C941B010C941B0190
:100080000C941B010C941B010C941B010C941B0180
:100090000C941B010C941B010C941B010C941B0170
:1000A0000C941B010C941B010C941B010C941B0160
:1000B0000C941B010C941B010C941B010C941B0150
:1000C0000C941B010C941B010C941B010C941B0140
:1000D0000C941B010C941B010C941B010C941B0130
:1000E0000C941B010C941B010C941B010C941B0120
:1000F0000C941B010C941B010C941B010C941B0110
:100100000C941B010C941B010C941B010C941B01FF
:100110000C941B010C941B010C941B010C941B01EF
:100120000C941B010C941B010C941B010C941B01DF
:100130000C941B010C941B010C941B010C941B01CF
:100140000C941B010C941B010C941B010C941B01BF
:100150000C941B010C941B010C941B010C941B01AF
:100160000C941B010C941B010C941B010C941B019F
:100170000C941B010C941B010C941B010C941B018F
:100180000C941B010C941B010C941B010C941B017F
:100190000C941B010C941B010C941B010C941B016F
:1001A0000C941B010C941B010C941B010C941B015F
:1001B0000C941B010C941B010C941B010C941B014F
:1001C0000C941B010C941B010C941B010C941B013F
:1001D0000C941B010C941B010C941B010C941B012F
:1001E0000C941B010C941B010C941B010C941B011F
:1001F0000C941B010C941B010C941B0111241FBEB9
:10020000CFEFCDBFD7E2DEBF10E2A0E0B0E2ECEB73
:10021000FAE002C005900D92A033B107D9F720E2B1
:10022000A0E3B0E201C01D92A234B207E1F70E9440
:1002300026010C945C050C9400009091B10995FF87
:10024000FCCF8093B00980E090E008958BEC809320
:10025000520088E0809350008091510083FFFCCFD2
:1002600082EC8093550088E180935000809151008A
:1002700084FFFCCF88ED84BF84E0809340008091B0
:1002800050008E7F8093500080E8809361068093B9
:1002900065068EE28093B60988E98093B70983E00A
:1002A0008093B50988E08093B40980E090E2809360
:1002B0003E2090933F208FEF8093010680930506A8
:1002C00080EB8093410690E49093420698E19093EE
:1002D0005606809346068FE58093C00881E08093A0
:1002E000C1088093A200809306081092010896E04E
:1002F0009093000825E33CE02093260830932708DC
:100300008093460810924108909340082EE330E015
:1003100020936608309367089FE09093610690935E
:10032000810690936606909386068093A200789447
:100330008FE0E82EFF24FA94C1E0D0E00EE010E256
:10034000809136208823E1F3E0926506E0928506ED
:100350001092352080913520883008F06AC0F092E4
:100360000506809135209E0102C0220F331F8A9519
:10037000E2F7209306068FE891E00197F1F700C0BD
:10038000000010923420F092C30880913420853010
:10039000E0F3809137208F3FE1F170913B20609135
:1003A0003A20509139204091382030913720809167
:1003B000302090913120A0913220B09133202091B3
:1003C00035201F927F931F926F931F925F931F920E
:1003D0004F931F923F93BF93AF939F938F931F921F
:1003E0002F931F930F930E948402809135202DB785
:1003F0003EB72E5E3F4F2DBF3EBF8430E8F4809164
:1004000035209E0102C0220F331F8A95E2F7209308
:1004100067068FE19EE40197F1F700C0000080912C
:1004200035208F5F8093352080913520883008F407
:1004300096CF1092362084CF8091352084509E0133
:1004400002C0220F331F8A95E2F720938706E1CF7F
:100450001F920F920FB60F9211248F93EF93FF9379
:10046000E0913420F0E08091C308E95CFF4D808387
:10047000809134208F5F8093342085E38A95F1F753
:10048000000080913420853018F48FEF8093C308EA
:10049000FF91EF918F910F900FBE0F901F901895C5
:1004A0001F920F920FB60F9211248F9381E08093C9
:1004B00036208F910F900FBE0F901F9018951F92AE
:1004C0000F920FB60F9211248F939F93AF93BF9308
:1004D0008091302090913120A0913220B091332032
:1004E0000196A11DB11D8093302090933120A093DF
:1004F0003220B0933320BF91AF919F918F910F9095
:100500000FBE0F901F901895A0E0B0E0EAE8F2E06F
:100510000C943B05AE014B5F5F4FFA016191719105
:10052000AF0180913E2090913F200E949A02E2E02C
:100530000C945405ABE0B0E0E0EAF2E00C942B053B
:100540006C017B018A01FC0116821782838181FF85
:10055000CCC1CE0101963C01F6019381F70193FDD8
:10056000859193FF81917F01882309F4BAC1853277
:1005700039F493FD859193FF81917F01853229F4B0
:10058000B60190E00E949104E7CF912C212C312CF0
:10059000FFE1F315D8F08B3279F038F4803279F03E
:1005A0008332A1F4232D20611DC08D3261F0803390
:1005B00069F4232D216016C0832D8260382EE32D2F
:1005C000E4603E2E2AC0F32DF8601DC037FC2DC01C
:1005D00020ED280F2A3040F08E32B9F436FC81C16C
:1005E000232D2064322E19C036FE06C08AE0989E64
:1005F000200D1124922E11C0EAE02E9E200D112410
:10060000222EF32DF0623F2E08C08C3621F4832D6C
:100610008068382E02C0883641F4F70193FD859139
:1006200093FF81917F018111B3CF982F9F7D9554C6
:10063000933028F40C5F1F4F9FE399830DC08336DE
:1006400031F0833771F0833509F059C021C0F801CA
:10065000808189830E5F1F4F88248394912C5301DE
:1006600013C02801F2E04F0E511CF801A080B180A8
:1006700036FE03C0692D70E002C06FEF7FEFC50149
:100680000E9486044C018201F32DFF773F2E16C095
:10069000280122E0420E511CF801A080B18036FEF4
:1006A00003C0692D70E002C06FEF7FEFC5010E94AB
:1006B0007B044C01F32DF0683F2E820133FC1BC0FC
:1006C000822D90E088169906B0F4B60180E290E0A1
:1006D0000E9491042A94F4CFF50137FC859137FEEE
:1006E00081915F01B60190E00E94910421102A944B
:1006F00021E0821A91088114910471F7E8C08436D0
:1007000011F0893641F5F80137FE07C0608171812B
:10071000828193810C5F1F4F08C060817181072E19
:10072000000C880B990B0E5F1F4FF32DFF763F2EA9
:1007300097FF09C090958095709561957F4F8F4F79
:100740009F4FF0683F2E2AE030E0A3010E94CD04C5
:10075000882E861845C0853731F4232D2F7EB22E82
:100760002AE030E025C0932D997FB92E8F36C1F055
:1007700018F4883579F0B5C0803719F0883721F042
:10078000B0C0E92FE061BE2EB4FE0DC0FB2DF460B9
:10079000BF2E09C034FE0AC0292F2660B22E06C023
:1007A00028E030E005C020E130E002C020E132E086
:1007B000F801B7FE07C060817181828193810C5F6F
:1007C0001F4F06C06081718180E090E00E5F1F4F77
:1007D000A3010E94CD04882E8618FB2DFF773F2EA3
:1007E00036FE0DC0232D2E7FA22E891458F434FE20
:1007F0000BC032FC09C0832D8E7EA82E05C0B82CFC
:10080000A32C03C0B82C01C0B92CA4FE0FC0FE015C
:10081000E80DF11D8081803321F49A2D997EA92E57
:1008200009C0A2FE06C0B394B39404C08A2D867892
:1008300009F0B394A3FC11C0A0FE06C0B21488F462
:10084000280C922C9B180EC0B21460F4B60180E202
:1008500090E00E949104B394F7CFB21418F42B18CF
:1008600002C0982C212CA4FE10C0B60180E390E0B9
:100870000E949104A2FE17C0A1FC03C088E790E08B
:1008800002C088E590E0B6010CC08A2D867859F048
:10089000A1FE02C08BE201C080E2A7FC8DE2B6019E
:1008A00090E00E949104891438F4B60180E390E04E
:1008B0000E9491049A94F7CF8A94F301E80DF11DF8
:1008C0008081B60190E00E9491048110F5CF222032
:1008D00009F442CEB60180E290E00E9491042A948D
:1008E000F6CFF6018681978102C08FEF9FEF2B969E
:1008F000E2E10C944405FC01059061507040011048
:10090000D8F7809590958E0F9F1F0895FC01615038
:10091000704001900110D8F7809590958E0F9F1F21
:1009200008950F931F93CF93DF93FB01238121FD44
:1009300003C08FEF9FEF2CC022FF16C04681578166
:10094000248135814217530744F4A081B1819D0170
:100950002F5F3F4F208331838C93268137812F5F18
:100960003F4F2683378314C08B01EC01FB010084C9
:10097000F185E02D0995892BE1F6D80116968D9128
:100980009C911797019616968D939C931797CE017D
:10099000DF91CF911F910F910895FA01AA27283076
:1009A00051F1203181F1E8946F936E7F6E5F7F4F3C
:1009B0008F4F9F4FAF4FB1E03ED0B4E03CD0670FB8
:1009C000781F891F9A1FA11D680F791F8A1F911D0B
:1009D000A11D6A0F711D811D911DA11D20D009F45B
:1009E00068943F912AE0269F11243019305D31939D
:1009F000DEF6CF010895462F4770405D4193B3E086
:100A00000FD0C9F7F6CF462F4F70405D4A3318F02C
:100A1000495D31FD4052419302D0A9F7EACFB4E0DD
:100A2000A6959795879577956795BA95C9F7009795
:100A30006105710508959B01AC010A2E0694579536
:100A4000479537952795BA95C9F7620F731F841F8D
:100A5000951FA01D08952F923F924F925F926F9223
:100A60007F928F929F92AF92BF92CF92DF92EF923E
:100A7000FF920F931F93CF93DF93CDB7DEB7CA1BBF
:100A8000DB0BCDBFDEBF09942A88398848885F8494
:100A90006E847D848C849B84AA84B984C884DF801E
:100AA000EE80FD800C811B81AA81B981CE0FD11D02
:0C0AB000CDBFDEBFED010895F894FFCF2C
:100ABC0000000002000000001D0100000000256481
:100ACC002D253031306C752D25303258253032586B
:100ADC002530325825303258253032580D0A000056
:00000001FF
